:020000040800F2
:10000000301000105D0200087D040008470400085D
:100010004B040008ED020008ED0900080000000094
:100020000000000000000000000000009D0100082A
:10003000F102000800000000F90100082107000893
:1000400077020008770200087702000877020008AC
:10005000770200087702000877020008770200089C
:10006000770200087702000877020008770200088C
:10007000770200087702000877020008770200087C
:10008000770200087702000877020008770200086C
:10009000770200087702000877020008770200085C
:1000A000770200087702000877020008770200084C
:1000B000770200087702000877020008770200083C
:1000C000770200087702000877020008770200082C
:1000D000770200087702000877020008BD070008D1
:1000E000770200087702000877020008770200080C
:1000F00077020008770200087702000877020008FC
:1001000077020008770200087702000877020008EB
:1001100077020008770200087702000877020008DB
:1001200077020008770200087702000877020008CB
:1001300077020008770200087702000877020008BB
:1001400077020008770200087702000877020008AB
:10015000770200087702000877020008770200089B
:10016000770200087702000877020008770200088B
:10017000770200087702000877020008770200087B
:100180007702000877020008DFF80CD000F09CF836
:1001900000480047ED0A0008301000102C4B196889
:1001A0000868B0E8F04F80F30988BFF36F8F4FF015
:1001B000000080F3118870470000000008480068C4
:1001C000006880F308884FF0000080F3148862B65E
:1001D00061B6BFF34F8FBFF36F8F00DF00BF00BF6B
:1001E00008ED00E0DFF80C00016841F470010160E7
:1001F000704700BF88ED00E0EFF30980BFF36F8F19
:10020000134B1A681EF0100F08BF20ED108A20E96A
:10021000F04F106009B44FF0500080F31188BFF325
:100220004F8FBFF36F8F01F0E9FD4FF0000080F3B7
:10023000118809BC19680868B0E8F04F1EF0100F6B
:1002400008BFB0EC108A80F30988BFF36F8F704746
:1002500028000010EFF30580704700000648804733
:1002600006480047FEE7FEE7FEE7FEE7FEE7FEE79B
:10027000FEE7FEE7FEE7FEE75507000889010008F4
:1002800040EA01039B0703D009E008C9121F08C018
:10029000042AFAD203E011F8013B00F8013B521E98
:1002A000F9D27047D2B201E000F8012B491EFBD20F
:1002B00070470022F6E710B513460A460446194671
:1002C000FFF7F0FF204610BD064C074D06E0E06842
:1002D00040F0010394E8070098471034AC42F6D38D
:1002E000FFF756FF0C2900083C29000800BFFEE775
:1002F000704700002DE9F04706460F461546984620
:10030000DDE9099A089C10480670FD200E494870E6
:10031000084687702812C8700D71084680F805805D
:10032000200E8871200CC871200A08724C72084691
:1003300080F80A9080F80BA06B2008730D2102480A
:1003400001F038FABDE8F0871807001010B5044630
:1003500006480470FF2005494870662088706B20AD
:10036000C8700421014801F025FA10BD38070010BB
:10037000F0B50A4600210023002400BF3DE001251E
:1003800005FA01F3156805EA03049C4234D10568B7
:100390004F000326BE40B543056015794E00B540B9
:1003A0000668354305601579012D02D01579022DB7
:1003B00016D185684F000326BE40B5438560557948
:1003C0004E00B540866835438560456801268E40FD
:1003D000B5434560456896798E40B6B23543456071
:1003E000C5684F000326BE40B543C560D5794E00B1
:1003F000B540C6683543C560491C1029BFD3F0BD60
:10040000F0B5002300244D07ED0E02FA05F3CE10DF
:1004100000F1200555F826504E07F70E0F26BE4076
:10042000B543CF1000F1200646F82750CE1000F15A
:10043000200555F8265045EA0304CE1000F12005AA
:1004400045F82640F0BD00BFFEE700BFFEE7000014
:100450001CB5054802210023CA01CDE9001003A103
:10046000054801F067FF1CBDA40000106D6F7669A0
:100470006E675F7461736B00FD0A000870470000CF
:1004800070B5002100230F22C4781CB3174C2468D8
:1004900004F4E064C4F5E064C4F30721C1F104048A
:1004A000E3B20A4144789C40E1B28478144021438D
:1004B0000C07210E0E4C05786155047804F01F05D9
:1004C0000124AC4005786D11AD0005F1E025C5F8BB
:1004D000004109E0047804F01F050124AC40054DFB
:1004E0000678761145F8264070BD00000CED00E05E
:1004F00000E400E080E100E002490143024A1160AB
:10050000704700000000FA050CED00E029B1064A32
:1005100012680243044B1A6004E0034A12688243E3
:10052000014B1A60704700003038024029B1064A7A
:1005300012680243044B1A6004E0034A12688243C3
:10054000014B1A607047000040380240F0B50021AE
:1005500000220024022500260223324F3F6807F0C4
:100560000C0121B1042905D0082937D105E02E4F0F
:10057000076036E02D4F076033E02A4F3F1F3F688A
:10058000C7F38056274F3F1F3F6807F03F036EB108
:10059000264FB7FBF3F7DFF88CC0ACF1040CDCF8A6
:1005A00000C0CCF3881C07FB0CF40CE01E4FB7FB1B
:1005B000F3F7DFF870C0ACF1040CDCF800C0CCF34A
:1005C000881C07FB0CF4174F3F1F3F68C7F3014718
:1005D0007F1C7D00B4FBF5F7076002E0124F076057
:1005E00000BF00BF0F4F3F6807F0F0010909104F2F
:1005F0007A5C0768D74047600A4F3F6807F4E051CC
:10060000890A0B4F7A5C4768D7408760054F3F687F
:1006100007F46041490B064F7A5C4768D740C760D2
:10062000F0BD0000083802400024F40000127A00F7
:10063000180000100CB500200190009034480068AC
:1006400040F480303249086000BF3148006800F44F
:10065000003000900198401C0190009818B9019852
:10066000B0F5A04FF1D12A48006800F4003010B175
:100670000120009001E0002000900098012846D160
:1006800023484030006840F08050214940310860E4
:100690002048006840F440401E4908601C4808306B
:1006A00000681B49083108600846006840F40040B3
:1006B00008600846006840F4A05008601648091F0A
:1006C0000860081F006840F08070091F086000BFC4
:1006D0000F48006800F000700028F9D040F2057063
:1006E0000E4908600A480830006820F003000849F5
:1006F000083108600846006840F00200086000BF4A
:1007000003480830006800F00C000828F8D10CBD40
:10071000003802400070004008544007003C02408E
:1007200010B500BF502080F31188BFF34F8FBFF387
:100730006F8F00BF01F030FE18B14FF080500449B8
:10074000086000BF002080F3118800BF10BD0000CA
:1007500004ED00E010B51548006840F4700013493E
:1007600008601348006840F001001149086000204B
:100770000F49083108600E4800680E4908400C49CE
:1007800008600D48091D0860081F006820F48020DB
:10079000091F0860002006490C310860FFF74AFF76
:1007A0004FF0006001498039086010BD88ED00E01D
:1007B00000380240FFFFF6FE1030002408B500208C
:1007C000009040F225511B4800F057F858B11949E4
:1007D000091D0988C8B200F053F940F225511548A7
:1007E00000F030F825E040F22441124800F045F8CE
:1007F000F8B1104800880F48001D008800F058F933
:100800000D490870002000900AE000F021F90B4922
:10081000BDF800208854BDF80000401C80B2009054
:10082000BDF80000044909788842EEDB0120044944
:10083000087008BD00480040010000107C0900104D
:100840000000001010B50022002340F66A14A142F7
:1008500000D100BF0A1201249440A3B2DC430480FB
:1008600010BD21B1828942F40052828104E0828964
:100870004DF6FF731A408281704770B5024600241E
:1008800000230025002040F66A16B14200D100BFC7
:10089000C1F3421501F01F03012606FA03F3012DEF
:1008A00002D19689334006E0022D02D1168A3340E8
:1008B00001E0968A33400C12012606FA04F41688E9
:1008C000344013B10CB1012000E0002070BDF0B540
:1008D0000346002400260025002040F66A17B9428E
:1008E00000D100BF1846C1F3421401F01F060127D2
:1008F00007FA06F5012C01D10C3004E0022C01D1DD
:10090000103000E014301AB107682F43076002E08E
:100910000768AF430760F0BD2DE9FF4705460E4667
:100920000024A14600BFA046B08900B100BF2C8AB8
:1009300024F44054F08804432C82AC8941F20C60CA
:100940008443B08831890843718908430443AC81EA
:10095000AC8A24F44074B0890443AC826846FFF743
:10096000F5FD2048854202D01F48854202D1DDF8BE
:100970000C9001E0DDF80890A88900F4004040B137
:1009800009EBC90000EB091031684900B0FBF1F731
:1009900007E009EBC90000EB091031688900B0FBE2
:1009A000F1F76420B7FBF0F004012009642101FB9A
:1009B0001078A88900F4004040B1322000EBC80054
:1009C000B0FBF1F000F00700044308E0322000EB38
:1009D00008106421B0FBF1F000F00F0004432C81FB
:1009E000BDE8FF87001001400014014000BFFEE792
:1009F0004FF4FA7001F0A2F84FF4FA4001F046FF0C
:100A000003E04FF47A7001F099F8FAE702E008C8C1
:100A1000121F08C1002AFAD170477047002001E078
:100A200001C1121F002AFBD1704710B500F06EF80B
:100A300000F003F800F0D4FE10BD10B501210B202A
:100A4000FFF764FD01218804FFF770FD10BD000071
:100A500000200A4991F80111084A32F811001146A4
:100A600091F80111491C82F80111114691F8011108
:100A7000802902DB002182F801117047FC09001077
:100A80000A4991F80011094A22F81100114691F81B
:100A90000011491C82F80011114691F800118029BB
:100AA00002DB002182F8001170470000FC090010F1
:100AB0000D4890F801010C4991F80011884208DCBA
:100AC000094890F80001084991F80111401A80B2D4
:100AD0007047054890F80101C0F18000024991F883
:100AE0000011084480B2F3E7FC090010FFF79DFFF6
:100AF000FFF7AEFC01F03CF900BFFEE710B504467D
:100B0000FFF776FF002001F047F810BD08B54FF45D
:100B10004070FFF7F1FC01208DF8030000208DF8F4
:100B2000020005208DF8010027208DF8000068469E
:100B3000FFF7A6FC08BD00002DE9F04705460E466C
:100B4000294807682948D0F800802948D0F8009043
:100B500028480068001D00F095FE50B9254800683F
:100B600090F82C10012088402349096881432248CD
:100B70000160681CE0B9DEB100BF204948681D492A
:100B8000096888601B4982680968CA601949096850
:100B9000091D8268516017490968091D8160174A5B
:100BA000144909684A6111460968491C116018E036
:100BB0007C19104800684460BC4206D20D480168A8
:100BC000091D484600F082FE0BE00A480168091D35
:100BD000404600F07BFE0A480068844201D2084883
:100BE0000460BDE8F08700003C0000102C000010FD
:100BF000300000102800001040000010F40B00101E
:100C00005800001010B5044600F086FE3448006815
:100C1000401C334908603348006840B931480460DB
:100C20000846006801280DD100F018FA0AE02E48A5
:100C3000006838B92B480068C06AE16A884201D868
:100C40002848046029480068401C28490860084674
:100C50000068206400BF94F82C10012088402449CB
:100C6000096808432249086000BFE16A01EB81017D
:100C7000204A02EB81014868A0608268E260211D81
:100C8000826851608160E16A01EB8101194A02EBDF
:100C900081026261E16A01EB8101164A52F821107A
:100CA000491CE26A02EB8202124B43F8221000BF99
:100CB00000BF00F05BFE0C48006878B100BF094837
:100CC0000068C06AE16A884207D24FF080500A4942
:100CD0000860BFF34F8FBFF36F8F00BF10BD0000E0
:100CE00038000010280000104400001054000010CC
:100CF00040000010400B001004ED00E010B500F0C3
:100D00000BFE10480068D0B90F4800F0CFFD0F4827
:100D100000F0CCFD0C480E4908600C480D490860F5
:100D200000220C210A2001F067F9064908600846F4
:100D3000006820B108A10348006800F0A9FE00F097
:100D400015FE10BD70000010080C00101C0C0010E7
:100D5000680000106C000010546D7251000000001B
:100D600010B516E000F0D8FD0C48C068C468201D1E
:100D700000F088FD0A480068401E094908600948DB
:100D80000068401E0749086000F0F0FD204600F0B2
:100D900082F8044800680028E4D110BDE00B001080
:100DA000380000103400001070B504460D46206C69
:100DB00070B1216CE0680144E160D4E9021088421E
:100DC00001D32168E1602846226CE168FFF758FAF8
:100DD00070BD0000F0B585B001260027002408E0B2
:100DE00012A0005D02A9085502A8005D00B902E04A
:100DF000641C0A2CF4DB00BF002510E00D4F0E48E8
:100E000000EB850000210B468222CDE9001002A9EB
:100E1000384601F08FFA064606B902E06D1C012D36
:100E2000ECDB00BF304605B0F0BD000049444C4546
:100E3000000000003D0F00085C0000102DE9FF5F7E
:100E40000746884616469946DDE90EABB00000F02D
:100E500081FB054675B1582000F07CFB04462CB19F
:100E600058212046FFF725FA256304E0284600F0C4
:100E70009BFD00E0002454B100204B463246414621
:100E8000CDE900ABCDE90240384600F080F82046BD
:100E900004B0BDE8F09F10B50446206B00F084FD5F
:100EA000204600F081FD10BD0146084A1268126814
:100EB0000AB9012200E000220A600A6822B9034A46
:100EC0001268D268106800E00020704768000010C7
:100ED00030B54FF49633144800F007042CB1C01D10
:100EE00020F00700104C041B1B1B104C206000243A
:100EF0000E4D6C60C218083A22F007020C4C2260BA
:100F000000240B4D2D686C60094D2D682C60014646
:100F1000541A4C60064C24680C60064D4C682C60DA
:100F2000054D4C682C6030BD00000020880000108A
:100F300090000010980000109400001000BFFFF710
:100F40000FFF064800680128F9D94FF08050044986
:100F50000860BFF34F8FBFF36F8FF0E7400B0010B7
:100F600004ED00E02DE9F04106460D46174698468F
:100F7000069C0DB9246000E02760E663256401212A
:100F8000204601F06DF884F84C80BDE8F0812DE931
:100F9000F05F82460F4690469B460A9E0C9C4FEAA5
:100FA0008801A522206BFFF77DF9A8F10100216BD4
:100FB00001EB800929F0070909F0070008B90120B1
:100FC00000E0002050B900BF502080F31188BFF32B
:100FD0004F8FBFF36F8F00BF00BFFEE77FB10025CB
:100FE00007E0795D04F134004155785D00B902E015
:100FF0006D1C0A2DF5D300BF00213D200155052EA3
:1010000001D2012000E0002050B900BF502080F341
:101010001188BFF34F8FBFF36F8F00BF00BFFEE794
:10102000052E00D30426E662A664201D00F04BFCCA
:1010300004F1180000F047FC2461C6F10500A0612E
:1010400064625A465146484600F080FB20600B9887
:1010500008B10B980460BDE8F09F000010B50024B3
:1010600007E004EB84010F4A02EB810000F01EFC54
:10107000641C052CF5D30C4800F018FC0B4800F05C
:1010800015FC0B4800F012FC0A4800F00FFC0A485F
:1010900000F00CFC0448094908600448084908604D
:1010A00010BD0000400B0010A40B0010B80B001086
:1010B000CC0B0010E00B0010F40B00102C00001003
:1010C0003000001010B50146224800E000680368B7
:1010D0008B42FBD31F4B984214D01F4B984204D332
:1010E0001E4B984201D8012300E0002353B900BFF2
:1010F000502383F31188BFF34F8FBFF36F8F00BF6F
:1011000000BFFEE70246436813448B4204D14368A4
:101110004C682344436001460A464B681344046804
:10112000A34211D10E4C03682468A34208D04B6837
:101130000468646823444B6003681B680B6005E027
:10114000074B1B680B6001E003680B60884200D00E
:10115000016010BD8800001000000020FF2B01205E
:10116000900000102DE9F04104460D4616461F463A
:101170004FF0000865602461B5420CD8F01BA169EE
:10118000884202D34FF0010811E0211D0948006890
:1011900000F09CFB0BE0BE4204D2BD4202D34FF0F4
:1011A000010804E0211D0448006800F08FFB404660
:1011B000BDE8F0816C0000106800001070B50546B5
:1011C00000F0AAFBA86B08B9012400E0002400F09D
:1011D000CDFB204670BD000070B505460E460E489A
:1011E0000068C068C468201D00F04CFB94F828001B
:1011F00000F0040028B132462946204600F0DAF813
:1012000005E094F8280000F0FE0084F8280020464D
:10121000216A884770BD0000680000107FB500207B
:101220000190029003907FE0019800287CDB039CF2
:10123000606908B9012000E0002010B9201D00F00D
:1012400021FB684600F0E2F8054601980A2869D2B9
:10125000DFE800F06805072E365806082F3700BF74
:1012600000BF00BF94F8280040F0010084F8280077
:101270000298A269811803462A462046FFF772FFAA
:10128000A8B194F8280000F0040038B10298A269CF
:1012900081182A46204600F08DF805E094F82800D1
:1012A00000F0FE0084F828002046216A88473AE0D2
:1012B00000BF94F8280000F0FE0084F8280032E017
:1012C00000BF94F8280040F0010084F8280002983C
:1012D000A061A06908B1012000E0002050B900BF62
:1012E000502080F31188BFF34F8FBFF36F8F00BF83
:1012F00000BFFEE7A06941192B462A462046FFF7AA
:1013000031FF10E094F8280000F0020018B92046E0
:1013100000F04AFB05E094F8280000F0FE0084F895
:10132000280000E000BF00BF002201A903480068B8
:1013300000F004FF00287FF477AF7FBD700000103D
:10134000F8B505460C4600F051FD684600F05EF821
:101350000646009820BB44B9B54206D801F09AF978
:1013600031462846FFF738FF1CE03CB10E480068C4
:10137000006808B9012000E000200446A91B2246AD
:101380000A48006800F0B4FB01F084F950B94FF04E
:10139000805007490860BFF34F8FBFF36F8F01E0A4
:1013A00001F078F9F8BD00006C000010700000102A
:1013B00004ED00E070B504460D46164604E0A06951
:1013C00005442046216A8847A06941192B463246C8
:1013D0002046FFF7C7FE0028F1D170BD094800681C
:1013E000006808B9012000E0002020B14FF0FF3074
:1013F0000549086005E003480068C06800680249C4
:10140000086070472C0000105800001070B50446AA
:1014100000F0BCFF054607480068854204D200F092
:101420000BF80120206001E00020206001480560E9
:10143000284670BD7800001070B508E00D480068BF
:10144000C06804684FF0FF312046FFF7C5FE094829
:101450000068006808B9012000E000200028EDD0F5
:1014600004480568044800680249086002480560AD
:1014700070BD0000680000106C0000100E4800688D
:10148000401C08B9012000E0002050B900BF5020E6
:1014900080F31188BFF34F8FBFF36F8F00BF00BF82
:1014A000FEE700BF502080F31188BFF34F8FBFF3DA
:1014B0006F8F00BF00BFFEE77C00001008B500BFC3
:1014C0006846FFF7F1FC044620460099FFF738FF15
:1014D000FFF7A4FEF4E770B5044600F01DFA94F996
:1014E000455010E0606A08B9012000E0002038B9DA
:1014F00004F1240001F036F818B100F0E3FB00E03D
:1015000003E0681E45B2002DECDC00BFFF2084F82C
:10151000450000F02BFA00F0FFF994F9445010E078
:10152000206908B9012000E0002048B904F110004A
:1015300001F018F808B100F0C5FB681E45B200E0E4
:1015400001E0002DECDC00BFFF2084F8440000F037
:101550000DFA70BD2DE9F04705464FF00008DDB1EA
:1015600015F1090F01D9012000E0002098B90835D4
:1015700005F0070080B105F00700C0F10809C9F1C6
:10158000FF30A84201D2012000E0002008B94D44FC
:1015900002E0002500E0002500F028FC6448006817
:1015A00008B9FFF795FC012000EBE570002877D023
:1015B000002DFCD05F480068854271D85E4E3046F1
:1015C00004685E48844204D35D48844201D8012007
:1015D00000E0002050B900BF502080F31188BFF315
:1015E0004F8FBFF36F8F00BF00BFFEE716E02646A8
:1015F00024685248844204D35148844201D80120CF
:1016000000E0002050B900BF502080F31188BFF3E4
:101610004F8FBFF36F8F00BF00BFFEE76068A84227
:1016200002D220680028E2D141480068844267D095
:10163000306800F108084148804504D3404880459F
:1016400001D8012000E0002050B900BF502080F3F5
:101650001188BFF34F8FBFF36F8F00BF00BFFEE74E
:10166000206830606068A84201D2012000E00020BC
:1016700080F0010050B900BF502080F31188BFF303
:101680004F8FBFF36F8F00BF00BFFEE76068401B46
:1016900010281AD9671907F0070010B9012001E0D6
:1016A0002EE0002050B900BF502080F31188BFF316
:1016B0004F8FBFF36F8F00BF00BFFEE76068401B16
:1016C000786065603068386037601A49606809681A
:1016D000081A18490860084600681A4909688842CB
:1016E00003D21448006817490860606840F0004061
:1016F00060600020206014480068401C12490860A7
:1017000000F0C8FF08F0070008B9012000E0002041
:1017100050B900BF502080F31188BFF34F8FBFF343
:101720006F8F00BF00BFFEE74046BDE8F0870000B6
:1017300090000010940000108800001000000020AD
:10174000FF2B0120980000109C000010001F4FF09C
:1017500080730360001F21F001030360001F054B2D
:10176000036014380260001F6FF00203036020382A
:10177000704700007D14000808B500210091C0F3F7
:1017800008010B4A11800AE0BDF80010491C89B21B
:101790000091BDF80010B1F5FA5F00DD08BD044905
:1017A000091F098801F080010029EDD000BFF5E78D
:1017B0000448004038B504460D46002000900090D3
:1017C00009E09DF80010605CFFF7D6FF9DF800006F
:1017D000401CC0B200909DF80000A842F1DB38BD6B
:1017E00000B587B04FF44070059002208DF81900C5
:1017F0008DF8180000208DF81A0001208DF81B00CC
:1018000005A91E48FEF7B4FD072208211B48FEF774
:10181000F7FD072209211948FEF7F2FD4FF4E130E8
:1018200001900020ADF80800ADF80A00ADF80C00FA
:10183000ADF810000C20ADF80E0001A91048FFF71C
:101840006BF80F4800880E48001D008840F22551B3
:101850000B48FEF7F7FF012240F225510848FFF739
:1018600036F8012240F224410548FFF730F8012103
:101870000348FEF7F6FF07B000BD0000000C024071
:101880000048004001460A69D1E901309860D1E979
:10189000010358605068884201D188685060002078
:1018A00008611068401E10601068704700F1080160
:1018B00041604FF0FF31816000F10801C1600161BA
:1018C00000210160704700210161704710B5024698
:1018D0000B685C1C0CB9106907E002F1080000E01D
:1018E0004068446824689C42FAD944684C604C685B
:1018F000A160886041600A611468641C146010BDB6
:1019000042684A6093688B6093685960916008618F
:1019100003685B1C0360704700BF502080F3118890
:10192000BFF34F8FBFF36F8F00BF0E480068401C9E
:101930000C49086008460068012812D10A4800686E
:10194000C0B208B9012000E0002050B900BF50200B
:1019500080F31188BFF34F8FBFF36F8F00BF00BFBD
:10196000FEE770477C00001004ED00E00D480068C1
:1019700050B900BF502080F31188BFF34F8FBFF3E1
:101980006F8F00BF00BFFEE706480068401E054994
:1019900008600846006820B9002080F3118800BF65
:1019A00000BF70477C00001070B506463546002E1B
:1019B00050D0083D2C462848844204D3274884420E
:1019C00001D8012000E0002050B900BF502080F372
:1019D0001188BFF34F8FBFF36F8F00BF00BFFEE7CB
:1019E0006068C00F50B900BF502080F31188BFF36A
:1019F0004F8FBFF36F8F00BF00BFFEE7206808B9AD
:101A0000012000E0002050B900BF502080F3118871
:101A1000BFF34F8FBFF36F8F00BF00BFFEE760685B
:101A2000C00FB8B12068A8B9606820F000406060BD
:101A300000F0DCF90A496068096808440849086050
:101A40002046FFF73FFB07480068401C0549086037
:101A500000F020FE70BD000000000020FF2B0120E0
:101A600094000010A000001000204FF0E021086159
:101A70008861064800684FF47A71B0FBF1F0401EAF
:101A80004FF0E02148610720086170470400001012
:101A900030B502460B46002152B900BF502484F3F2
:101AA0001188BFF34F8FBFF36F8F00BF00BFFEE7FA
:101AB000BBB1002012E00D4C04EBC00464689442FA
:101AC00003D10A4C04EBC0010AE031B9074C54F8C9
:101AD000304014B9054C04EBC001401C0828EAD37F
:101AE00000BF09B10B604A6030BD0000000B001060
:101AF0002DE9F04105460E4617462C46FFF70CFF30
:101B000094F94400401C10B9002084F8440094F972
:101B10004500401C10B9002084F84500FFF726FF5F
:101B2000A06B28B93A46314604F1240000F0ECF8E5
:101B30002046FFF7D0FCBDE8F081000070B50446F8
:101B40000025D4B100F052F911480068012800D1F5
:101B500000E0002050B900BF502080F31188BFF38F
:101B60004F8FBFF36F8F00BF00BFFEE700212046FD
:101B7000FEF7E2FF00F08EFD05463DB94FF08050C4
:101B800004490860BFF34F8FBFF36F8F70BD000033
:101B90006400001004ED00E02DE9F0410546002648
:101BA000FFF7BAFE15B93748006800E0284604463A
:101BB000201DFFF767FE88B900BFE06A00EB8000D8
:101BC000314951F8200040B994F82C100120884088
:101BD0002E49096881432D48016000BFA06A18B1F1
:101BE00004F11800FFF74EFE29480068401C284900
:101BF000086024480068844201D1012000E00020F0
:101C000007462448006858B157B1211D2248FFF704
:101C100077FE22480068401C20490860012606E043
:101C20001F480068401E1E490860FFF7D7FBFFF7FA
:101C30009DFE012E02D02046FFF72DF915480068C1
:101C4000E8B110480068844219D11648006808B904
:101C5000012000E0002050B900BF502080F311881F
:101C6000BFF34F8FBFF36F8F00BF00BFFEE74FF092
:101C700080500D490860BFF34F8FBFF36F8FBDE8F1
:101C8000F081000028000010400B00104000001000
:101C90005400001044000010E00B0010340000104D
:101CA000380000106400001004ED00E003490968EA
:101CB000016003490968416070470000500000104E
:101CC0003C00001001200149086070474C000010E2
:101CD00070B504460D4654B900BF502080F31188FA
:101CE000BFF34F8FBFF36F8F00BF00BFFEE7054804
:101CF000016818312046FFF7E9FD01212846FEF76B
:101D00001BFF70BD2800001070B504460E46154636
:101D100054B900BF502080F31188BFF34F8FBFF339
:101D20006F8F00BF00BFFEE700BF60680F49096802
:101D3000C8610E49826809680A620C49096818314D
:101D4000826851600949096818318160074909684A
:101D50008C622168491C216000BF0DB14FF0FF3635
:101D600029463046FEF7E8FE70BD0000280000104E
:101D700010B5FFF72FF80446012C02D100F05AFDF0
:101D80000446012C15D100BF502080F31188BFF309
:101D90004F8FBFF36F8F00BF4FF0FF300F490860C8
:101DA00001200F49086000200E49086000F070F81B
:101DB00010E0601C08B1012000E0002050B900BF15
:101DC000502080F31188BFF34F8FBFF36F8F00BF98
:101DD00000BFFEE70448006810BD00005800001076
:101DE000440000103C000010600000100248006831
:101DF000401C014908607047640000101F480068DB
:101E000018B101201E49086036E000201C49086016
:101E100000BF1C480068B0FA80F0C0F11F0101EB60
:101E20008100194A52F8200008B1012000E000208A
:101E300050B900BF502080F31188BFF34F8FBFF31C
:101E40006F8F00BF00BFFEE700BF01EB81020E4BAA
:101E500003EB820042685268426000F10802436866
:101E6000934201D1C26842604268D268074B1A604F
:101E700000BF00BF184600687047000064000010F3
:101E80004C00001040000010400B00102800001013
:101E90000EB5524800685249884201D0012000E046
:101EA000002050B900BF502080F31188BFF34F8F3E
:101EB000BFF36F8F00BF00BFFEE748480068484986
:101EC000491E884201D0012000E0002050B900BF27
:101ED000502080F31188BFF34F8FBFF36F8F00BF87
:101EE00000BFFEE7002001903E49084600780290BE
:101EF000FF200A4610700846007800909DF8000008
:101F000000F05000384A10701046007850B900BFF9
:101F1000502080F31188BFF34F8FBFF36F8F00BF46
:101F200000BFFEE79DF800205020904308B9012033
:101F300000E0002050B900BF502080F31188BFF3AB
:101F40004F8FBFF36F8F00BF00BFFEE707E0019820
:101F5000401C01909DF800004006000E00909DF886
:101F6000000000F080008028F1D00198082803D1FB
:101F700000201E4A106004E00198C0F107001B4ACF
:101F800010601A4800680002184A10601046008865
:101F900000F4E06010609DF80800124A10700F48CD
:101FA0002030006840F47F000C492031086008466A
:101FB000006840F07F400860FFF756FD00200C49A4
:101FC0000860FEF70FF90B48006840F040400949EF
:101FD0000860FEF7F3F800200EBD000000ED00E001
:101FE00071C20F4100E400E0800000108400001086
:101FF0007C00001034EF00E02DE9F84305460E4662
:1020000017460024E5B1601EB0FBF5F0B04217D3CF
:1020100005FB06F010F1510F12D805FB06F808F188
:102020005000FFF797FA0446B4B1A14609F15009F0
:102030003B464A46314628460094FEF793FF0BE0A4
:1020400054B900BF502080F31188BFF34F8FBFF306
:102050006F8F00BF00BFFEE72046BDE8F883000099
:102060002DE9F04105460E4601272C4654B900BF24
:10207000502080F31188BFF34F8FBFF36F8F00BFE5
:1020800000BFFEE7002C42D0E06B00283FD04FF0AD
:10209000FF31E06BB1FBF0F0216C884237D3FFF7E2
:1020A0003BFCD4E90F12206801FB0200A060002075
:1020B000A06320686060E06B401E226C216800FB1A
:1020C0000211E160FF2084F8440084F845009EB9C5
:1020D000206908B9012000E00020A8B904F110002F
:1020E00000F040FA80B14FF0805013490860BFF310
:1020F0004F8FBFF36F8F07E004F11000FFF7D6FB9F
:1021000004F12400FFF7D2FBFFF730FC00E00027CA
:102110000FB1012000E0002050B900BF502080F333
:102120001188BFF34F8FBFF36F8F00BF00BFFEE773
:102130003846BDE8F081000004ED00E02DE9F741EC
:1021400083B005460E464FF000082C4654B900BF38
:10215000502080F31188BFF34F8FBFF36F8F00BF04
:1021600000BFFEE70EB9206C08B9012000E0002096
:1021700050B900BF502080F31188BFF34F8FBFF3D9
:102180006F8F00BF00BFFEE700F0F0F808B90598B8
:1021900008B9012000E0002050B900BF502080F3B2
:1021A0001188BFF34F8FBFF36F8F00BF00BFFEE7F3
:1021B00000BFFFF7B1FBA76BF7B131462046FEF732
:1021C000F3FD781EA063206908B9012000E000201B
:1021D00060B904F1100000F0C5F938B14FF080503B
:1021E0002F490860BFF34F8FBFF36F8FFFF7BEFB20
:1021F000012006B0BDE8F081059818B9FFF7B6FBDD
:102200000020F6E7B8F1000F04D101A8FFF74EFD5A
:102210004FF00108FFF7AAFBFFF7E8FDFFF77CFB93
:1022200094F94400401C10B9002084F8440094F94B
:102230004500401C10B9002084F84500FFF796FBCC
:1022400005A901A800F02EF8F0B92046FEF7B6FF68
:10225000A0B104F124000599FFF73AFD2046FFF7ED
:102260003AF900F017FA0028A3D14FF080500C493A
:102270000860BFF34F8FBFF36F8F9AE72046FFF7D9
:102280002AF900F007FA94E72046FFF724F900F056
:1022900001FA2046FEF792FF00288AD00020A8E726
:1022A00004ED00E070B505460C4655B900BF50205E
:1022B00080F31188BFF34F8FBFF36F8F00BF00BF54
:1022C000FEE754B900BF502080F31188BFF34F8F51
:1022D000BFF36F8F00BF00BFFEE7FFF71DFB134882
:1022E00002686868131A2068401C08B9002619E0C3
:1022F0000F4928680968884206D06868904203D868
:102300000126002020600DE02068984207D920684F
:10231000C01A20602846FFF7C9FC002602E0002012
:1023200020600126FFF722FB304670BD3C00001004
:10233000500000102DE9FC5F06460F469046994676
:10234000DDE90CAB4B46424639463046CDE900ABA1
:10235000FEF774FD054625B12846FEF753FC01241F
:1023600001E04FF0FF342046BDE8FC9F05490968B5
:1023700009B9012005E00449096809B9022000E013
:1023800000207047440000106400001001490868F4
:10239000704700003C0000102DE9F0414FF00008AC
:1023A0006548006800287DD164480068451C634882
:1023B00005601DBB00BF62480068006808B90120C5
:1023C00000E0002050B900BF502080F31188BFF317
:1023D0004F8FBFF36F8F00BF00BFFEE758480768FD
:1023E00058480068564908605648076056480068D3
:1023F000401C55490860FEF7F1FF00BF53480068D4
:1024000085427ED300BF4E480068006808B90120AD
:1024100000E0002020B14FF0FF304C4908606FE031
:1024200047480068C068C4686668B54202D2474839
:10243000066065E000BF6069D4E902128A60D4E9F1
:1024400002214A60211D42688A4201D1E16841604F
:10245000002262610168491E016000BFA06AA0B14C
:1024600000BFA06AD4E907128A60D4E907214A6054
:1024700004F1180142688A4201D1216A41600022B8
:10248000A2620168491E016000BF00BF94F82C10D1
:10249000012088402E49096808432D49086000BF83
:1024A000E16A00E03FE001EB81012A4A02EB810191
:1024B0004868A0608268E260211D82685160816086
:1024C000E16A01EB8101234A02EB81026261E16A68
:1024D00001EB81011F4A52F82110491CE26A02EB0C
:1024E00082021C4B43F8221000BF00BF1A49E06A69
:1024F0000968C96A884286D94FF0010883E700E07D
:1025000000BF15480068C06A00EB8000114951F80F
:102510002000012801D94FF001081048006808B1D7
:102520004FF0010804E00E480068401C0C490860A8
:102530004046BDE8F0810000640000103C0000103F
:102540002C00001030000010500000105800001047
:1025500040000010400B0010280000104C0000103C
:102560004800001070B50346D868C16851B900BF73
:10257000502080F31188BFF34F8FBFF36F8F00BFE0
:1025800000BFFEE700BF886AD1E90745A560D1E931
:102590000754656001F118044568A54201D10C6A31
:1025A000446000258D620468641E046000BF3348E7
:1025B0000068002842D100BF4869D1E90245A56002
:1025C000D1E9025465600C1D4568A54201D1CC6873
:1025D000446000254D610468641E046000BF00BFB4
:1025E00091F82C400120A040254C24682043244C25
:1025F000206000BFCC6A04EB8404224D05EB840408
:10260000606888608568CD600C1D85686C6084603A
:10261000CC6A04EB84041B4D05EB84054D61CC6A48
:1026200004EB8404174D55F82440641CCD6A05EB77
:102630008505144E46F8254000BF11E000BF124C3E
:102640006068C86185680D6201F1180485686C6076
:1026500084600D4D8D622C462468641C2C6000BF84
:102660000A4CC86A2468E46AA04204D90122012005
:10267000074C206000E00022104670BD640000108E
:1026800040000010400B0010CC0B00102800001080
:102690004C0000102DE9F04100240027FFF73CF921
:1026A00000255B48006808B1012000E0002050B917
:1026B00000BF502080F31188BFF34F8FBFF36F8F9F
:1026C00000BF00BFFEE752480068401E5049086046
:1026D0000846006800286ED14E48006800286AD07D
:1026E00064E04D48C068C46800BFA06AD4E907121E
:1026F0008A60D4E907214A6004F1180142688A42DD
:1027000001D1216A41600022A2620168491E016074
:1027100000BF00BF6069D4E902128A60D4E90221D7
:102720004A60211D42688A4201D1E168416000226D
:1027300062610168491E016000BF00BF94F82C105F
:10274000012088403549096808433449086000BFC2
:10275000E16A01EB8101324A02EB81014868A06025
:102760008268E260211D826851608160E16A01EB4C
:1027700081012B4A02EB81026261E16A01EB810176
:10278000274A52F82110491CE26A02EB8202244BCC
:1027900043F8221000BF00BF2249E06A0968C96AF5
:1027A000884203D90120204941F825001A480068D1
:1027B00010B9012001E026E00020002891D00CB1E2
:1027C000FEF70CFE194806686EB100BFFFF7E4FD86
:1027D00018B10120144941F82500761E002EF5D1CC
:1027E000002012490860104850F8250058B1012710
:1027F00000BF0C48006838070D490860BFF34F8FD1
:10280000BFF36F8F00BFFFF7B1F83846BDE8F08126
:102810006400001038000010CC0B001040000010C5
:10282000400B0010280000104C0000104800001061
:1028300004ED00E01CB50024FEF760FA0E480068C5
:1028400058B10E48022100234FF48272CDE90010E6
:102850000BA10D48FFF76EFD044654B900BF502090
:1028600080F31188BFF34F8FBFF36F8F00BF00BF9E
:10287000FEE720461CBD0000700000107400001030
:10288000546D722053766300BD1400083EB50446B3
:102890000120002164231A46CDE90041029001463F
:1028A000FDF728FD0A20FFF749F9012000216423E4
:1028B0001A46CDE90041029001460220FDF71AFDBB
:1028C0000A20FFF73BF90120002164231A46CDE9D5
:1028D0000041029001460320FDF70CFD0A20FFF79E
:1028E0002DF90120002164231A46CDE90041029010
:1028F00001460420FDF7FEFC0A20FFF71FF9002027
:10290000FDF724FD0A20FFF719F93EBD3C29000818
:1029100000000010A80000000C0A00083C29000874
:1029200000000020002C01001C0A0008E429000817
:10293000A8000010880F00001C0A0008000000001A
:10294000007A030A000000000000000001020304F6
:102950000607080900000000010203040102030445
:102960000607080900000000000000000000000049
:102970000000000000000000000000000000000057
:102980000000000000000000000000000000000047
:102990000000000000000000000000000400000033
:1029A0000000000000000000000000000000000027
:1029B0000000000000000000AAAAAAAA000000006F
:1029C0000000000000000000000000000000000007
:1029D00000000000000000000000000000000000F7
:0429E00000000000F3
:040000050800018965
:00000001FF
